:1000000012C02CC02BC02AC029C028C027C026C0BF
:1000100025C024C023C099C121C020C01FC01EC05C
:100020001DC01CC01BC011241FBECFE5D4E0DEBF25
:10003000CDBF10E0A0E6B0E0ECE5F4E002C0059032
:100040000D92A636B107D9F720E0A6E6B0E001C0D0
:100050001D92A836B207E1F74CD1FEC1D1CF8AB1CB
:1000600088698AB986E880BD10BC83E389B90895A0
:100070005D9BFECF8CB908955F9BFECF8CB1089538
:100080005F9B02C08CB1089580E30895009731F022
:100090005F9902C00197FACF8CB1089580E308956B
:1000A000CF93DF93EC018991882311F0E1DFFBCF3F
:1000B000DF91CF910895FB0120E030E0DC015D91FC
:1000C000CD014191541308C02F5F3F4F28303105B7
:1000D000A9F781E090E0089580E090E00895CF9244
:1000E000DF92EF92FF920F931F93CF93DF93CDB7E1
:1000F000DEB728970FB6F894DEBF0FBECDBF06E07F
:1001000010E02AE0C22ED12CE12CF12CA70196019F
:1001100065D1605DE1E0F0E0EC0FFD1FE00FF11F45
:100120006083B901CA010150110980F71886CE0118
:10013000019628960FB6F894DEBF0FBECDBFDF91B3
:10014000CF911F910F91FF90EF90DF90CF90089586
:10015000CF92DF92EF92FF92CF93DF9300D000D047
:10016000CDB7DEB7FC01A081B0E0D09720E432E447
:100170004FE050E055D169837A838B839C83C9809B
:10018000DA80EB80FC80A181B0E0D09720EA36E8ED
:1001900041E050E045D16C0D7D1D8E1D9F1D698392
:1001A0007A838B839C83C980DA80EB80FC80828198
:1001B00090E0C09720E137E2829FA001839F500D1D
:1001C000929F500D1124662757FD6095762F4C0D98
:1001D0005D1D6E1D7F1D49835A836B837C83C9809F
:1001E000DA80EB80FC80838190E0C09728EE33E0DA
:1001F000829FA001839F500D929F500D112466276E
:1002000057FD6095762F4C0D5D1D6E1D7F1D49833A
:100210005A836B837C83C980DA80EB80FC80848185
:1002200090E0C09724E6289FA001299F500D11243B
:10023000662757FD6095762F4C0D5D1D6E1D7F1D49
:1002400049835A836B837C83C980DA80EB80FC808E
:10025000858190E0C0972AE0289FA001299F500D3A
:100260001124662757FD6095762F4C0D5D1D6E1D80
:100270007F1D49835A836B837C8349815A816B81BB
:100280007C81868190E0C097AA2797FDA095BA2F20
:10029000840F951FA61FB71F89839A83AB83BC83E6
:1002A00069817A818B819C810F900F900F900F90C4
:1002B000DF91CF91FF90EF90DF90CF900895109253
:1002C00067002091670021110AC0009741F0019753
:1002D000EFECF7E03197F1F700C00000F2CF8FECC0
:1002E00097E00197F1F700C0000081E0809367007C
:1002F0000895B99A8FB581688FBD8EB58A608EBD1D
:10030000AEDE2FEF80E792E0215080409040E1F791
:1003100000C000008FEF90E09BBD8ABDA59AAD9A0A
:100320007894C0E2D4E080916600833039F485B3DC
:100330008C2785BB87E69CDED093660080916600A3
:10034000853089F710926600EECF1F920F920FB69C
:100350000F9211248F939F93EF93FF938CB1909101
:100360006600933040F590916600911107C0E091CE
:100370006000F091610090818917B1F09091660062
:10038000913039F4E0916000F0916100918189171A
:1003900059F090916600923059F4E0916000F0912C
:1003A00061009281891304C0809166008F5F0BC049
:1003B000109266000AC090916600943031F490E08B
:1003C0009BBD8ABD85E080936600FF91EF919F9170
:1003D0008F910F900FBE0F901F901895A1E21A2ECB
:1003E000AA1BBB1BFD010DC0AA1FBB1FEE1FFF1FD9
:1003F000A217B307E407F50720F0A21BB30BE40B29
:10040000F50B661F771F881F991F1A9469F760956F
:100410007095809590959B01AC01BD01CF01089529
:10042000B7FF04C003D0821B930B089509D0A59F8A
:10043000900DB49F900DA49F800D911D11240895DF
:10044000A29FB001B39FC001A39F01D0B29F700DC6
:0C045000811D1124911D0895F894FFCF28
:06045C0062005230340082
:00000001FF
