:100000000C942A000C9447000C9447000C94470071
:100010000C9447000C9447000C9447000C94470044
:100020000C9447000C9447000C9447000C94470034
:100030000C9447000C949E090C9447000C944700C4
:100040000C9447000C9447000C9447000C94470014
:100050000C94470011241FBECFE5D8E0DEBFCDBF12
:1000600010E0A0E6B0E0E6EFF4E102C005900D92EA
:10007000A63AB107D9F720E0A6EAB0E001C01D9288
:10008000AB3EB207E1F70E9430030C94790A0C945E
:1000900000008AB188698AB986E880BD10BC83E314
:1000A00089B908955D9BFECF8CB908955F9BFECF03
:1000B0008CB108955F9902C08DE208958CB10895C6
:1000C0009698672B682B692B11F48DE208955F9940
:1000D000FCCF8CB10895FC012081222339F03196A8
:1000E0005D9BFECF2CB921912111FACF0895CF93BA
:1000F000DF93FC01118681E690E09183808380E7A5
:1001000082838DE280871786C1E0C287118E25E643
:1001100030E0318B208B33E6328B40E157E260E0F8
:1001200070E0438B548B658B768B808F178EC28FDC
:10013000438F548F658F768F11A6A9E6B0E0B1A3E7
:10014000A0A322E722A39DE797A380A717A6C2A793
:1001500011AE32AB43AB54AB65AB76AB80AF17AEF1
:1001600012AEADE6B0E0B1ABA0ABDF01A75BBF4F15
:100170001C9217972C9315969C9311968C93179617
:100180001C9215971C921A97C1E7D0E01196DC9348
:10019000CE93509619961C92199712963C931297EB
:1001A00013964D935D936D937C93169718968C934D
:1001B00018971F961C921F971A961C921A97C5E7BC
:1001C000D0E01196DC93CE93509619961C92199715
:1001D00012962C93129717969C93179718968C93B8
:1001E00018971F961C921F971A961C921A97C9E788
:1001F000D0E01196DC93CE93509619961C921997E5
:1002000012963C93129713964D935D936D937C9346
:10021000169718968C9318971F961C921F971A96EC
:100220001C921A97CDE7D0E01196DC93CE935096AE
:1002300019961C92199712962C93129717969C93C5
:10024000179718968C9318971F961C921F971A96BB
:100250001C921A97C1E8D0E01196DC93CE93509689
:1002600019961C92199712963C93129713964D93D8
:100270005D936D937C93169718968C9318971F96A1
:100280001C921F971A961C921A97C5E8D0E01196F7
:10029000DC93CE93509619961C92199712962C9334
:1002A000129717969C93179718968C9318971F96EA
:1002B0001C921F971A961C921A97C9E8D0E01196C3
:1002C000DC93CE93509619961C92199712963C93F4
:1002D000129713964D935D936D937C931697189692
:1002E0008C9318971F961C921F971A961C921A9718
:1002F000CDE8D0E01196DC93CE93509619961C92DF
:10030000199712962C93129717969C9317971896F5
:100310008C9318971F961C921F971A961C921A97E7
:10032000C1E9D0E01196DC93CE93509619961C92B9
:10033000199712963C93129713964D935D936D9374
:100340007C93169718968C9318971F961C921F975C
:100350001A961C921A97C5E9D0E01196DC93CE93B9
:10036000509619961C92199712962C9312971796DD
:100370009C93179718968C9318971F961C921F970B
:100380001A961C921A97C9E9D0E01196DC93CE9385
:10039000509619961C92199712963C9312971396A1
:1003A0004D935D936D937C93169718968C93189745
:1003B0001F961C921F971A961C921A974DE950E0AF
:1003C0004D935C93F39511862283978380871786DC
:1003D000128681EA90E091838083DF91CF91089526
:1003E000DC01FB0180E090E03D912191321719F092
:1003F00080E090E00895019688309105A9F781E0AA
:1004000090E00895CF92DF92EF92FF920F931F93A7
:10041000CF93DF93CDB7DEB728970FB6F894DEBF42
:100420000FBECDBF06E010E02AE0C22ED12CE12C99
:10043000F12CA70196010E94EC09605DE1E0F0E07B
:10044000EC0FFD1FE00FF11F6083B901CA010150DD
:10045000110978F71886CE01019628960FB6F89400
:10046000DEBF0FBECDBFDF91CF911F910F91FF90E7
:10047000EF90DF90CF900895CF92DF92EF92FF92AE
:10048000CF93DF9300D000D0CDB7DEB7FC01A081C1
:10049000B0E0D09720E432E44FE050E00E940E0A32
:1004A00069837A838B839C83C980DA80EB80FC80AC
:1004B000A181B0E0D09720EA36E841E050E00E9408
:1004C0000E0A6C0D7D1D8E1D9F1D69837A838B83A3
:1004D0009C83C980DA80EB80FC80828190E0C097A9
:1004E00020E137E2829FA001839F500D929F500D23
:1004F0001124662757FD6095762F4C0D5D1D6E1DEE
:100500007F1D49835A836B837C83C980DA80EB80AB
:10051000FC80838190E0C09728EE33E0829FA001A9
:10052000839F500D929F500D1124662757FD6095B3
:10053000762F4C0D5D1D6E1D7F1D49835A836B8385
:100540007C83C980DA80EB80FC80848190E0C09756
:1005500024E6289FA001299F500D1124662757FDEE
:100560006095762F4C0D5D1D6E1D7F1D49835A834E
:100570006B837C83C980DA80EB80FC80858190E08E
:10058000C097AC01440F551F880F991F880F991F02
:10059000880F991F480F591F662757FD6095762FC2
:1005A0004C0D5D1D6E1D7F1D49835A836B837C83BB
:1005B00049815A816B817C81868190E0C097AA270E
:1005C00097FDA095BA2F840F951FA61FB71F89838B
:1005D0009A83AB83BC8369817A818B819C810F90E4
:1005E0000F900F900F90DF91CF91FF90EF90DF90E1
:1005F000CF9008951092A9002091A900222361F0C4
:100600000DC00197EFECF7E03197F1F700C0000063
:100610002091A900211102C0009799F78FEC97E073
:100620000197F1F700C0000081E08093A9000895D0
:100630009C0165E070E00E94D809633371051CF4E9
:10064000C901C2960895CB01C3978639910520F45C
:10065000C901860F971F0895C90188539F4F0895B8
:10066000CF93DF93CDB7DEB7CA52D4400FB6F8941C
:10067000DEBF0FBECDBF8AB188698AB986E880BD6A
:1006800010BC83E389B978941092010010920000A5
:10069000CE018F5F9D4F0E94770081E090E09093A4
:1006A00001008093000021E032E02C0F3D1F265E08
:1006B0003F4FC85DDB4F39832883C852D44079014E
:1006C00001E010E0C8010E94560AD7016C93C801EE
:1006D00001969093010080930000B0E1EB0EF11CB5
:1006E0008131910511F08C01EDCF10920100109233
:1006F00000001982CD5DDB4F1882C352D4402E0119
:10070000EFE64E1AECEF5E0AD2011C92CF5EDC4F90
:100710001882C151D340CF5DDB4F19821882C1527C
:10072000D44081E08ABBD89AFE01E55EFC4FCC5DE7
:10073000DB4FF983E883C452D4409E012F5F3F4FC3
:100740001901B3E26B2E712C1AE0C12ED12CE12CD1
:10075000F12C11C08091A6008F5F8093A60080913C
:10076000A600813111F41092A6008FEC97E001975A
:10077000F1F700C000008091A600E1E0F2E0EC0F8C
:10078000FD1F30E1839FE00DF11D11248285813032
:1007900009F7F8941092A8001092AA008093A7007D
:1007A0008091A600E1E0F2E0EC0FFD1F90E1899F4F
:1007B000E00DF11D11240190F081E02D808188234E
:1007C00039F031965D9BFECF8CB981918111FACFC2
:1007D0008091A600E1E0F2E0EC0FFD1FA0E18A9F0E
:1007E000E00DF11D11240190F081E02D8081803514
:1007F00021F48BB391E089278BBB78941092A900E8
:100800008091A900811110C089E190E003C0019797
:10081000009751F0AFECB7E01197F1F700C000007E
:100820002091A900222399F3EFECF7E03197F1F73B
:1008300000C0000081E08093A9008FE19EE4019751
:10084000F1F700C000001092A700F8948091AA0070
:100850008823C1F08091AA00823709F4BBC080913F
:10086000AA008E3609F4A5C08091AA00873609F443
:10087000C2C05D9BFECF82E68CB91092AA00109296
:10088000A80004C05D9BFECF82E68CB9789480916D
:10089000A60081110FC08091A600E1E0F2E0EC0F0C
:1008A000FD1F90E1899FE00DF11D112480858E369A
:1008B00009F4AEC08091A60081110FC08091A600FE
:1008C000E1E0F2E0EC0FFD1F30E1839FE00DF11D50
:1008D00011248085823709F413C18091A60081110B
:1008E0000FC08091A600E1E0F2E0EC0FFD1FA0E157
:1008F0008A9FE00DF11D11248085873609F4F2C02E
:100900008091A600882379F08091A600E1E0F2E0D2
:10091000EC0FFD1F20E1829FE00DF11D1124808569
:10092000873609F434C28091A600882309F412CFD7
:100930008091A600E1E0F2E0EC0FFD1F20E1829F34
:10094000E00DF11D11248085873609F003CF8091D9
:10095000A600E1E0F2E0EC0FFD1F30E1839FE00D27
:10096000F11D11248281823709F0F4CE8091A60016
:10097000E1E0F2E0EC0FFD1F90E1899FE00DF11D39
:1009800011248DE280878091A600E1E0F2E0EC0F77
:10099000FD1FA0E18A9FE00DF11D112487815D9B61
:1009A000FECF8CB9EFE1FEE43197F1F700C0000013
:1009B000D1CE9091A600911157CF9091A600E1E081
:1009C000F2E0EC0FFD1F20E1929FE00DF11D1124DC
:1009D000808753CF9091A600911141CF9091A600AE
:1009E000E1E0F2E0EC0FFD1FB0E19B9FE00DF11D97
:1009F0001124808742CF9091A600E1E0F2E0EC0F55
:100A0000FD1F30E1939FE00DF11D1124808735CF4C
:100A10008091A600E1E0F2E0EC0FFD1FA0E18A9FCB
:100A2000E00DF11D11248DE2808781E08093A70005
:100A30005D9BFECF87E68CB91092A9008091A9003A
:100A4000811110C088E893E103C00197009751F02D
:100A5000AFECB7E01197F1F700C000002091A900BA
:100A6000222399F3EFECF7E03197F1F700C0000093
:100A700081E08093A9008FE19EE40197F1F700C027
:100A800000001092A700D2011C926AEA70E0C20135
:100A90000E94440AF20180818823B1F0F2010190A2
:100AA0000020E9F73197E419F509EA30F10509F476
:100AB0007EC2E330F10509F4C3C3329709F47AC367
:100AC0005D9BFECF82E68CB98091A600E1E0F2E06A
:100AD000EC0FFD1F20E1829FE00DF11D11248DE23E
:100AE000808738CE8091A600E1E0F2E0EC0FFD1F98
:100AF000B0E18B9FE00DF11D11248DE280872ACE9D
:100B00008091A600E1E0F2E0EC0FFD1F90E1899FEB
:100B1000E00DF11D11248DE28087AA24A39482E0C8
:100B2000B82EAC0EBD1EA0E1AA0EB11CC85DDB4FF5
:100B300088809980C852D44010C090E1890E911CE1
:100B4000A0E1AA0EB11CCC5DDB4FE881F981C45253
:100B5000D4408E169F0609F4B9C0F401808181301B
:100B600061F738972081233609F407C1223709F449
:100B7000C6C0203749F4F10101900020E9F7319710
:100B800080E790E091838083F10101900020E9F7F4
:100B900031978F010219130971826082D2011C9270
:100BA000F50160817181C201C65DDB4F2883CA52A5
:100BB000D4400E94440AD2018C91CF5EDC4F8883DE
:100BC000C151D340BFE5CE5EDC4FB883C251D340A4
:100BD000F2018181CD5EDC4F8883C351D340828195
:100BE000CC5EDC4F8883C451D340CB5EDC4F18828F
:100BF000C551D340C8010196BE016F5E7C4F820D86
:100C0000931D0E944F0AF10101900020E9F73197EE
:100C1000CF0182199309CA5DDB4F99838883C6523D
:100C2000D44071826082C65DDB4F2881CA52D440B5
:100C3000233609F46EC0F4013397608170E080E0E0
:100C400090E006E010E0A70196010E94EC0980E325
:100C5000860FE1E1F4E0EC0FFD1FE00FF11F808350
:100C6000B901CA010150110970F7C85EDB4F188243
:100C7000C851D440CA5DDB4F88819981C652D440A7
:100C80000196BE016F5E7B4F820D931D0E944F0A3D
:100C9000F10101900020E9F731977182608229818A
:100CA000222361F080E090E05D9BFECF2CB901969D
:100CB000F101E80FF91F20812111F6CF8FE19EE4A9
:100CC0000197F1F700C00000198237CF5D9BFECF7E
:100CD00085E68CB98FE19EE40197F1F700C0000032
:100CE00019828091A600E1E0F2E0EC0FFD1F90E197
:100CF000899FE00DF11D11248DE280872BCDF1013C
:100D000001900020E9F73197A2E7B0E0B183A0831A
:100D10003BCFD50113966C91139714967C91149741
:100D200015968C91159716969C9106E010E0A701F8
:100D300096010E94EC0980E3860FE9E1F4E0EC0FF4
:100D4000FD1FE00FF11F8083B901CA010150110995
:100D500070F7C05EDB4F1882C052D440CA5DDB4FD3
:100D600088819981C652D4400196BE01675E7B4F4F
:100D7000820D931D0E944F0A8BCFF101019000203C
:100D8000E9F7319783E690E091838083FDCE8091EF
:100D9000A600E1E0F2E0EC0FFD1F30E1839FE00DE3
:100DA000F11D11248281833609F0BDCD8091A6000A
:100DB000E1E0F2E0EC0FFD1F90E1899FE00DF11DF5
:100DC00011248DE280871092AA0081E08093A70011
:100DD0005D9BFECF8CE68CB91092A9008091A90092
:100DE00081110FC088EE93E0AFECB7E01197F1F7F7
:100DF00000C000002091A900211103C001970097B5
:100E000099F7AFECB7E01197F1F700C0000081E06F
:100E10008093A900EFE1FEE43197F1F700C00000F4
:100E20001092A700D2011C926AEA70E0C2010E94EF
:100E3000440A1092AA00F2018081882309F48ACC26
:100E4000F20101900020E9F73897E415F50509F063
:100E500081CC1091A600C2010E943C02E1E0F2E0C8
:100E6000EC0FFD1FB0E11B9FE00DF11D112463830A
:100E70007483858396839091A6008091A600A1E05B
:100E8000B2E0AC0FBD1FE0E19E9FA00DB11D11248B
:100E9000E1E0F2E0EC0FFD1F20E1829FE00DF11D8B
:100EA000112413964D915D916D917C9116978385D8
:100EB0009485A585B685481759076A077B0790F181
:100EC0008091A600E1E0F2E0EC0FFD1F30E1839F8E
:100ED000E00DF11D1124038114812581368180915B
:100EE000A600E1E0F2E0EC0FFD1F90E1899FE00D2C
:100EF000F11D11240384F485E02DCF0165E070E03D
:100F00000E94D809633371050CF016C1CF01C29657
:100F1000AA2797FDA095BA2F80179107A207B307BC
:100F200008F018CC9091A6008091A600A1E0B2E054
:100F3000AC0FBD1FE0E19E9FA00DB11D1124E1E0AB
:100F4000F2E0EC0FFD1F20E1829FE00DF11D112466
:100F500013964D915D916D917C9116978385948543
:100F6000A585B685481759076A077B0708F0EDC0C5
:100F70008091A600E1E0F2E0EC0FFD1F30E1839FDD
:100F8000E00DF11D112487898F3F09F4E3CB809197
:100F9000A600E1E0F2E0EC0FFD1F90E1899FE00D7B
:100FA000F11D1124709687818F5F8783D3CBF20167
:100FB0008081813609F084CD8185833609F080CD2A
:100FC000818190E0C097CF5DDB4F99838883C152C8
:100FD000D440CF5DDB4F88819981C152D44018162F
:100FE00019060CF0D5C0CF5DDB4FE881F981C15205
:100FF000D440E295F295F07FFE27E07FFE2721E0C6
:1010000032E02C0F3D1FE20FF31F81E08287CF5D9E
:10101000DB4FE881F981C152D440E295F295F07F2F
:10102000FE27E07FFE27E20FF31F8DE28087CF5D72
:10103000DB4FE881F981C152D440E295F295F07F0F
:10104000FE27E07FFE27E20FF31F1186D2011296E2
:101050008C911297CF5EDC4F8883C151D340139699
:101060008C911397CE5EDC4F8883C251D340149687
:101070008C911497CD5EDC4F8883C351D340159675
:101080008C911597CC5EDC4F8883C451D340169663
:101090008C911697CB5EDC4F8883C551D340179651
:1010A0008C911797CA5EDC4F8883C651D34018963F
:1010B0008C91C95EDC4F8883C751D340C85EDC4F3A
:1010C0001882C851D340CF5DDB4F08811981C152CE
:1010D000D440CE018F5E9C4F0E943C02F801E29505
:1010E000F295F07FFE27E07FFE2721E032E02C0F13
:1010F0003D1FE20FF31F6387748785879687809172
:10110000EA008F5F8093EA005D9BFECF87E68CB993
:101110001092AA00CF5DDB4F88819981C152D440E3
:10112000909301008093000061E00E945C0A10929D
:10113000010010920000C8CCCB01C39786399105FD
:1011400018F5CF01860F971FE3CE8091A600E1E04E
:10115000F2E0EC0FFD1FA0E18A9FE00DF11D1124CC
:101160008789882309F4F6CA8091A600E1E0F2E0BD
:10117000EC0FFD1FB0E18B9FE00DF11D1124709667
:10118000878181508783E6CACF0188539F4FC0CEA5
:10119000CF5DDB4F88819981C152D44041970CF4D7
:1011A00022CF83E090E0CF5DDB4F99838883C152EB
:1011B000D44019CFF2018081843609F081CC81813D
:1011C00090E0C097CF5DDB4F99838883C152D440B4
:1011D000CF5DDB4F88819981C152D4401816190622
:1011E0000CF08AC0CF5DDB4FE881F981C152D44059
:1011F000E295F295F07FFE27E07FFE2721E032E0C6
:101200002C0F3D1FE20FF31F12868091EA008150E0
:101210008093EA005D9BFECF87E68CB9CF5DDB4F04
:1012200088819981C152D44090930100809300003D
:1012300060E00E945C0A109201001092000044CC11
:10124000D2018C91813609F03BCC12968C91129789
:10125000823709F035CC11968C9190E0C097CF5D24
:10126000DB4F99838883C152D440CF5DDB4F8881A7
:101270009981C152D440181619060CF04FC0CF5DA9
:10128000DB4FE881F981C152D440E295F295F07FBD
:10129000FE27E07FFE27A1E0B2E0AC0FBD1FEA0F02
:1012A000FB1F81E08287CF5DDB4FE881F981C1526E
:1012B000D440E295F295F07FFE27E07FFE27EA0F0B
:1012C000FB1F8DE28087CF5DDB4FE881F981C15242
:1012D000D440E295F295F07FFE27E07FFE27EA0FEB
:1012E000FB1F11868091EA008F5F8093EA005D9B6F
:1012F000FECF87E68CB90ECFCF5DDB4F8881998119
:10130000C152D44041970CF46DCF83E090E0CF5DA3
:10131000DB4F99838883C152D44064CFCF5DDB4FCC
:1013200088819981C152D44041970CF4A8CFCF5DF8
:10133000DB4FF983E883C152D440A1CF1F920F92B3
:101340000FB60F9211248F93EF93FF938091A70014
:10135000813009F15F98FF91EF918F910F900FBE4F
:101360000F901F9018958091A800803410F0109273
:10137000A800E091A800F0E08CB1E655FF4F808313
:101380008091A8008F5F8093A800E091A800F0E012
:10139000E655FF4F10825F99E6CF81E08093A90068
:1013A000FF91EF918F910F900FBE0F901F901895A6
:1013B00097FB072E16F4009407D077FD09D00E9402
:1013C000160A07FC05D03EF4909581959F4F08952D
:1013D000709561957F4F0895A1E21A2EAA1BBB1B41
:1013E000FD010DC0AA1FBB1FEE1FFF1FA217B307F1
:1013F000E407F50720F0A21BB30BE40BF50B661F07
:10140000771F881F991F1A9469F7609570958095CA
:1014100090959B01AC01BD01CF010895B7FF0C94DD
:101420002A0A0E942A0A821B930B0895AA1BBB1B3F
:1014300051E107C0AA1FBB1FA617B70710F0A61BD4
:10144000B70B881F991F5A95A9F780959095BC01F5
:10145000CD0108950E94350AA59F900DB49F900D6F
:10146000A49F800D911D11240895A29FB001B39FE8
:10147000C001A39F700D811D1124911DB29F700D9D
:10148000811D1124911D0895FB01DC010D900020A8
:10149000E9F7119701900D920020E1F70895FB0103
:1014A000DC0101900D920020E1F70895A6E1B0E083
:1014B00044E050E00C946B0A262FE199FECF9FBBCD
:1014C0008EBB2DBB0FB6F894E29AE19A0FBE01963F
:1014D0000895DC01CB01FC01E199FECF06C0FFBB02
:1014E000EEBBE09A31960DB20D9241505040B8F7E4
:0614F0000895F894FFCFFF
:1014F6002D504330004330310052303100433032FA
:10150600005230320043303300523033004330341F
:101516000052303400433035005230350043303607
:1015260000523036004330370052303700433038EF
:06153600005230380000F5
:00000001FF
