:1000000012C02CC02BC02AC029C028C027C026C0BF
:1000100025C024C023C0CDCC21C020C012CD1EC01D
:100020001DC01CC01BC011241FBECFE5D4E0DEBF25
:10003000CDBF12E0A0E6B0E0EAEFFDE102C005901E
:100040000D92A236B107D9F722E0A2E6B2E001C0D4
:100050001D92A537B207E1F7A2DBCDCED1CF4F92EB
:100060005F926F927F928F929F92AF92BF92CF9248
:10007000DF92EF92FF920F931F93CF93DF9300D005
:10008000CDB7DEB75C0180917402813009F48ACA71
:1000900081E090E09A83898342E050E060E070E084
:1000A000CE01019682DE8BE090E09A83898342E064
:1000B00050E062E070E0CE01019677DE85E190E0ED
:1000C0009A83898342E050E064E070E0CE010196BB
:1000D0006CDE8FE190E09A83898342E050E066E035
:1000E00070E0CE01019661DE89E290E09A83898317
:1000F00042E050E068E070E0CE01019656DE83E316
:1001000090E09A83898342E050E06AE070E0CE019B
:1001100001964BDE8DE390E09A83898342E050E0C4
:100120006CE070E0CE01019640DE86E490E09A83B8
:10013000898342E050E06EE070E0CE01019635DE4A
:1001400080E590E09A83898342E050E060E170E0CE
:10015000CE0101962ADE8AE590E09A83898342E007
:1001600050E062E170E0CE0101961FDE84E690E08F
:100170009A83898342E050E064E170E0CE01019609
:1001800014DE8EE690E09A83898342E050E066E1D7
:1001900070E0CE01019609DE88E790E09A838983BA
:1001A00042E050E068E170E0CE010196FEDD82E8B9
:1001B00090E09A83898342E050E06AE170E0CE01EA
:1001C0000196F3DD8CE890E09A83898342E050E069
:1001D0006CE170E0CE010196E8DD86E990E09A835B
:1001E000898342E050E06EE170E0CE010196DDDDF2
:1001F00080EA90E09A83898342E050E060E270E018
:10020000CE010196D2DD89EA90E09A83898342E0AB
:1002100050E062E270E0CE010196C7DD83EB90E032
:100220009A83898342E050E064E270E0CE01019657
:10023000BCDD8DEB90E09A83898342E050E066E27A
:1002400070E0CE010196B1DD87EC90E09A8389835E
:1002500042E050E068E270E0CE010196A6DD81ED5B
:1002600090E09A83898342E050E06AE270E0CE0138
:1002700001969BDD8BED90E09A83898342E050E00C
:100280006CE270E0CE01019690DD85EE90E09A83FD
:10029000898342E050E06EE270E0CE01019685DD98
:1002A0008FEE90E09A83898342E050E060E370E053
:1002B000CE0101967ADD89EF90E09A83898342E04E
:1002C00050E062E370E0CE0101966FDD83E091E0E3
:1002D0009A83898342E050E064E370E0CE010196A6
:1002E00064DD8CE091E09A83898342E050E066E32C
:1002F00070E0CE01019659DD86E191E09A83898311
:1003000042E050E068E370E0CE0101964EDD80E20D
:1003100091E09A83898342E050E06AE370E0CE0185
:10032000019643DD8AE291E09A83898342E050E0BE
:100330006CE370E0CE01019638DD84E391E09A83AE
:10034000898342E050E06EE370E0CE0101962DDD3E
:100350008EE391E09A83898342E050E060E470E0AC
:10036000CE01019622DD88E491E09A83898342E000
:1003700050E062E470E0CE01019617DD82E591E085
:100380009A83898342E050E064E470E0CE010196F4
:100390000CDD8CE591E09A83898342E050E066E4CD
:1003A00070E0CE01019601DD86E691E09A838983B3
:1003B00042E050E068E470E0CE010196F6DC8FE6A2
:1003C00091E09A83898342E050E06AE470E0CE01D4
:1003D0000196EBDC89E791E09A83898342E050E063
:1003E0006CE470E0CE010196E0DC83E891E09A8352
:1003F000898342E050E06EE470E0CE010196D5DCE6
:100400008DE891E09A83898342E050E060E570E0F6
:10041000CE010196CADC87E991E09A83898342E0A4
:1004200050E062E570E0CE010196BFDC81EA91E028
:100430009A83898342E050E064E570E0CE01019642
:10044000B4DC8BEA91E09A83898342E050E066E570
:1004500070E0CE010196A9DC85EB91E09A83898357
:1004600042E050E068E570E0CE0101969EDC8FEB43
:1004700091E09A83898342E050E06AE570E0CE0122
:10048000019693DC89EC91E09A83898342E050E005
:100490006CE570E0CE01019688DC82ED91E09A83F4
:1004A000898342E050E06EE570E0CE0101967DDC8C
:1004B0008CED91E09A83898342E050E060E670E041
:1004C000CE01019672DC86EE91E09A83898342E048
:1004D00050E062E670E0CE01019667DC80EF91E0CB
:1004E0009A83898342E050E064E670E0CE01019691
:1004F0005CDC8AEF91E09A83898342E050E066E613
:1005000070E0CE01019651DC84E092E09A83898309
:1005100042E050E068E670E0CE01019646DC8EE0F5
:1005200092E09A83898342E050E06AE670E0CE016F
:1005300001963BDC88E192E09A83898342E050E0B7
:100540006CE670E0CE01019630DC82E292E09A83A4
:10055000898342E050E06EE670E0CE01019625DC32
:100560008CE292E09A83898342E050E060E770E099
:10057000CE0101961ADC85E392E09A83898342E0FA
:1005800050E062E770E0CE0101960FDC8FE392E06D
:100590009A83898342E050E064E770E0CE010196DF
:1005A00004DC89E492E09A83898342E050E066E7C4
:1005B00070E0CE010196F9DB83E592E09A838983AE
:1005C00042E050E068E770E0CE010196EEDB8DE599
:1005D00092E09A83898342E050E06AE770E0CE01BE
:1005E0000196E3DB87E692E09A83898342E050E05C
:1005F0006CE770E0CE010196D8DB81E792E09A8348
:10060000898342E050E06EE770E0CE010196CDDBD9
:100610008BE792E09A83898342E050E060E870E0E3
:10062000CE010196C2DB85E892E09A83898342E09D
:1006300050E062E870E0CE010196B7DB8FE892E00F
:100640009A83898342E050E064E870E0CE0101962D
:10065000ACDB88E992E09A83898342E050E066E867
:1006600070E0CE010196A1DB82EA92E09A83898351
:1006700042E050E068E870E0CE01019696DB8CEA3B
:1006800092E09A83898342E050E06AE870E0CE010C
:1006900001968BDB86EB92E09A83898342E050E0FF
:1006A0006CE870E0CE01019680DB80EC92E09A83EA
:1006B000898342E050E06EE870E0CE01019675DB80
:1006C0008AEC92E09A83898342E050E060E970E02E
:1006D000CE0101966ADB84ED92E09A83898342E041
:1006E00050E062E970E0CE0101965FDB8EED92E0B2
:1006F0009A83898342E050E064E970E0CE0101967C
:1007000054DB88EE92E09A83898342E050E066E908
:1007100070E0CE01019649DB82EF92E09A838983F3
:1007200042E050E068E970E0CE0101963EDB8BEFDD
:1007300092E09A83898342E050E06AE970E0CE015A
:10074000019633DB85E093E09A83898342E050E0B1
:100750006CE970E0CE01019628DB8FE093E09A838C
:10076000898342E050E06EE970E0CE0101961DDB26
:1007700089E193E09A83898342E050E060EA70E087
:10078000CE01019612DB83E293E09A83898342E0F3
:1007900050E062EA70E0CE01019607DB8DE293E063
:1007A0009A83898342E050E064EA70E0CE010196CA
:1007B000FCDA87E393E09A83898342E050E066EABB
:1007C00070E0CE010196F1DA84E493E09A838983A4
:1007D00042E050E068EA70E0CE010196E6DA81E599
:1007E00093E09A83898342E050E06AEA70E0CE01A8
:1007F0000196DBDA80E693E09A83898342E050E059
:100800006CEA70E0CE010196D0DA8FE693E09A832D
:10081000898342E050E06EEA70E0CE010196C5DACD
:100820008CE793E09A83898342E050E060EB70E0CC
:10083000CE010196BADA8BE893E09A83898342E08D
:1008400050E062EB70E0CE010196AFDA8AE993E006
:100850009A83898342E050E064EB70E0CE01019618
:10086000A4DA87EA93E09A83898342E050E066EB5A
:1008700070E0CE01019699DA86EB93E09A83898342
:1008800042E050E068EB70E0CE0101968EDA85EC34
:1008900093E09A83898342E050E06AEB70E0CE01F6
:1008A000019683DA82ED93E09A83898342E050E0F7
:1008B0006CEB70E0CE01019678DA81EE93E09A83DA
:1008C000898342E050E06EEB70E0CE0101966DDA74
:1008D0008EEE93E09A83898342E050E060EC70E012
:1008E000CE01019662DA8DEF93E09A83898342E02C
:1008F00050E062EC70E0CE01019657DA8CE094E0B3
:100900009A83898342E050E064EC70E0CE01019666
:100910004CDA89E194E09A83898342E050E066EC06
:1009200070E0CE01019641DA88E294E09A838983EF
:1009300042E050E068EC70E0CE01019636DA87E3E1
:1009400094E09A83898342E050E06AEC70E0CE0143
:1009500001962BDA84E494E09A83898342E050E0A4
:100960006CEC70E0CE01019620DA83E594E09A8386
:10097000898342E050E06EEC70E0CE01019615DA1A
:1009800082E694E09A83898342E050E060ED70E073
:10099000CE0101960ADA8FE694E09A83898342E0D9
:1009A00050E062ED70E0CE010196FFD98FE794E050
:1009B0009A83898342E050E064ED70E0CE010196B5
:1009C000F4D980E994E09A83898342E050E066EDAF
:1009D00070E0CE010196E9D980EA94E09A83898398
:1009E00042E050E068ED70E0CE010196DED981EB87
:1009F00094E09A83898342E050E06AED70E0CE0192
:100A00000196D3D981EC94E09A83898342E050E047
:100A10006CED70E0CE010196C8D983ED94E09A8325
:100A2000898342E050E06EED70E0CE010196BDD9C1
:100A300084EE94E09A83898342E050E060EE70E0B7
:100A4000CE010196B2D984EF94E09A83898342E083
:100A500050E062EE70E0CE010196A7D985E095E006
:100A60009A83898342E050E064EE70E0CE01019603
:100A70009CD987E195E09A83898342E050E066EE55
:100A800070E0CE01019691D988E295E09A8389833E
:100A900042E050E068EE70E0CE01019686D988E32E
:100AA00095E09A83898342E050E06AEE70E0CE01DF
:100AB00001967BD989E495E09A83898342E050E0EE
:100AC0006CEE70E0CE01019670D989E595E09A83CD
:100AD000898342E050E06EEE70E0CE01019665D968
:100AE0008BE695E09A83898342E050E060EF70E006
:100AF000CE0101965AD98CE795E09A83898342E02A
:100B000050E062EF70E0CE0101964FD98CE895E09D
:100B10009A83898342E050E064EF70E0CE01019651
:100B200044D98DE995E09A83898342E050E066EFED
:100B300070E0CE01019639D98DEA95E09A838983D8
:100B400042E050E068EF70E0CE0101962ED98FEBC5
:100B500095E09A83898342E050E06AEF70E0CE012D
:100B6000019623D980ED95E09A83898342E050E095
:100B70006CEF70E0CE01019618D980EE95E09A8373
:100B8000898342E050E06EEF70E0CE0101960DD90E
:100B900081EF95E09A83898342E050E060E071E064
:100BA000CE01019602D981E096E09A83898342E0E2
:100BB00050E062E071E0CE010196F7D88DE196E059
:100BC0009A83898342E050E064E071E0CE010196AF
:100BD000ECD888E396E09A83898342E050E066E0AF
:100BE00071E0CE010196E1D882E596E09A8389838F
:100BF00042E050E068E071E0CE010196D6D88DE683
:100C000096E09A83898342E050E06AE071E0CE0189
:100C10000196CBD889E896E09A83898342E050E038
:100C20006CE071E0CE010196C0D883EA96E09A8329
:100C3000898342E050E06EE071E0CE010196B5D8C4
:100C40008DEB96E09A83898342E050E060E171E0A9
:100C5000CE010196AAD888ED96E09A83898342E076
:100C600050E062E171E0CE0101969FD882EF96E0FC
:100C70009A83898342E050E064E171E0CE010196FD
:100C800094D88EE097E09A83898342E050E066E151
:100C900071E0CE01019689D889E297E09A83898331
:100CA00042E050E068E171E0CE0101967ED883E435
:100CB00097E09A83898342E050E06AE171E0CE01D7
:100CC000019673D88DE597E09A83898342E050E0DE
:100CD0006CE171E0CE01019668D888E797E09A83CD
:100CE000898342E050E06EE171E0CE0101965DD86B
:100CF00084E997E09A83898342E050E060E271E002
:100D0000CE01019652D88EEA97E09A83898342E019
:100D100050E062E271E0CE01019647D889EC97E09D
:100D20009A83898342E050E064E271E0CE0101964B
:100D30003CD883EE97E09A83898342E050E066E2F4
:100D400071E0CE01019631D88EEF97E09A838983C6
:100D500042E050E068E271E0CE01019626D880E2E0
:100D600098E09A83898342E050E06AE271E0CE0124
:100D700001961BD883E498E09A83898342E050E08F
:100D80006CE271E0CE01019610D885E698E09A8376
:100D9000898342E050E06EE271E0CE01019605D811
:100DA00088E898E09A83898342E050E060E371E04C
:100DB000CE010196FAD78BEA98E09A83898342E0C4
:100DC00050E062E371E0CE010196EFD78DEC98E040
:100DD0009A83898342E050E064E371E0CE0101969A
:100DE000E4D780EF98E09A83898342E050E066E39D
:100DF00071E0CE010196D9D783E199E09A83898386
:100E000042E050E068E371E0CE010196CED785E381
:100E100099E09A83898342E050E06AE371E0CE0171
:100E20000196C3D788E599E09A83898342E050E030
:100E30006CE371E0CE010196B8D78BE799E09A8315
:100E4000898342E050E06EE371E0CE010196ADD7B8
:100E50008DE999E09A83898342E050E060E471E093
:100E6000CE010196A2D780EC99E09A83898342E073
:100E700050E062E471E0CE01019697D783EE99E0ED
:100E80009A83898342E050E064E471E0CE010196E8
:100E90008CD785E09AE09A83898342E050E066E44B
:100EA00071E0CE01019681D788E29AE09A83898326
:100EB00042E050E068E471E0CE01019676D78BE421
:100EC0009AE09A83898342E050E06AE471E0CE01BF
:100ED00001966BD78DE69AE09A83898342E050E0D1
:100EE0006CE471E0CE01019660D780E99AE09A83C4
:100EF000898342E050E06EE471E0CE01019655D75F
:100F000083EB9AE09A83898342E050E060E571E0E8
:100F1000CE0101964AD785ED9AE09A83898342E013
:100F200050E062E571E0CE0101963FD788EF9AE08C
:100F30009A83898342E050E064E571E0CE01019636
:100F400034D78AE19BE09A83898342E050E066E5EA
:100F500071E0CE01019629D78DE39BE09A838983C6
:100F600042E050E068E571E0CE0101961ED780E6D0
:100F70009BE09A83898342E050E06AE571E0CE010C
:100F8000019613D782E89BE09A83898342E050E080
:100F90006CE571E0CE01019608D785EA9BE09A8363
:100FA000898342E050E06EE571E0CE010196FDD606
:100FB00086EC9BE09A83898342E050E060E671E032
:100FC000CE010196F2D681E09CE09A83898342E0CB
:100FD00050E062E671E0CE010196E7D68BE39CE03B
:100FE0009A83898342E050E064E671E0CE01019685
:100FF000DCD687E79CE09A83898342E050E066E68E
:1010000071E0CE010196D1D680EB9CE09A83898372
:1010100042E050E068E671E0CE010196C6D68AEE65
:101020009CE09A83898342E050E06AE671E0CE0159
:101030000196BBD686E29DE09A83898342E050E028
:101040006CE671E0CE010196B0D68FE59DE09A8303
:10105000898342E050E06EE671E0CE010196A5D6AC
:101060008BE99DE09A83898342E050E060E771E07C
:10107000CE0101969AD684ED9DE09A83898342E061
:1010800050E062E771E0CE0101968FD68EE09EE0DF
:101090009A83898342E050E064E771E0CE010196D3
:1010A00084D68EE39EE09A83898342E050E066E72F
:1010B00071E0CE01019679D681E69EE09A8389831C
:1010C00042E050E068E771E0CE0101966ED685E817
:1010D0009EE09A83898342E050E06AE771E0CE01A6
:1010E000019663D688EA9EE09A83898342E050E0C5
:1010F0006CE771E0CE01019658D68BEC9EE09A83A6
:10110000898342E050E06EE771E0CE0101964DD652
:101110008FEE9EE09A83898342E050E060E871E0C0
:10112000CE01019642D682E19FE09A83898342E014
:1011300050E062E871E0CE01019637D686E39FE089
:101140009A83898342E050E064E871E0CE01019621
:101150002CD689E59FE09A83898342E050E066E8D7
:1011600071E0CE01019621D68CE79FE09A838983B6
:1011700042E050E068E871E0CE01019616D680EAC0
:101180009FE09A83898342E050E06AE871E0CE01F3
:1011900001960BD683EC9FE09A83898342E050E06E
:1011A0006CE871E0CE01019600D686EE9FE09A834E
:1011B000898342E050E06EE871E0CE010196F5D5FA
:1011C0008AE090E19A83898342E050E060E971E02F
:1011D000CE010196EAD58DE290E19A83898342E0BF
:1011E00050E062E971E0CE010196DFD581E590E142
:1011F0009A83898342E050E064E971E0CE01019670
:10120000D4D584E790E19A83898342E050E066E98F
:1012100071E0CE010196C9D587E990E19A8389836F
:1012200042E050E068E971E0CE010196BED58BEB5B
:1012300090E19A83898342E050E06AE971E0CE014F
:101240000196B3D58BEE90E19A83898342E050E01A
:101250006CE971E0CE010196A8D589E291E19A830B
:10126000898342E050E06EE971E0CE0101969DD5A0
:1012700087E691E19A83898342E050E060EA71E079
:10128000CE01019692D585EA91E19A83898342E065
:1012900050E062EA71E0CE01019687D583EE91E1DC
:1012A0009A83898342E050E064EA71E0CE010196BE
:1012B0007CD581E292E19A83898342E050E066EA3C
:1012C00071E0CE01019671D58FE592E19A83898311
:1012D00042E050E068EA71E0CE01019666D58DE902
:1012E00092E19A83898342E050E06AEA71E0CE019C
:1012F00001965BD58BED92E19A83898342E050E0C1
:101300006CEA71E0CE01019650D589E193E19A83B0
:10131000898342E050E06EEA71E0CE01019645D546
:1013200087E593E19A83898342E050E060EB71E0C6
:10133000CE0101963AD585E993E19A83898342E00B
:1013400050E062EB71E0CE0101962FD583ED93E181
:101350009A83898342E050E064EB71E0CE0101960C
:1013600024D581E194E19A83898342E050E066EBE1
:1013700071E0CE01019619D58FE494E19A838983B7
:1013800042E050E068EB71E0CE0101960ED58DE8A9
:1013900094E19A83898342E050E06AEB71E0CE01E8
:1013A000019603D58BEC94E19A83898342E050E067
:1013B0006CEB71E0CE010196F8D489E095E19A8357
:1013C000898342E050E06EEB71E0CE010196EDD4EE
:1013D00087E495E19A83898342E050E060EC71E014
:1013E000CE010196E2D485E895E19A83898342E0B3
:1013F00050E062EC71E0CE010196D7D483EC95E128
:101400009A83898342E050E064EC71E0CE0101965A
:10141000CCD481E096E19A83898342E050E066EC87
:1014200071E0CE010196C1D48FE396E19A8389835E
:1014300042E050E068EC71E0CE010196B6D48BE852
:1014400096E19A83898342E050E06AEC71E0CE0134
:101450000196ABD487EE96E19A83898342E050E00F
:101460006CEC71E0CE010196A0D483E497E19A83FD
:10147000898342E050E06EEC71E0CE01019695D494
:101480008FE997E19A83898342E050E060ED71E053
:10149000CE0101968AD48AEF97E19A83898342E04C
:1014A00050E062ED71E0CE0101967FD486E598E1CF
:1014B0009A83898342E050E064ED71E0CE010196A9
:1014C00074D482EB98E19A83898342E050E066ED20
:1014D00071E0CE01019669D48DE099E19A83898308
:1014E00042E050E068ED71E0CE0101965ED489E6FD
:1014F00099E19A83898342E050E06AED71E0CE0180
:10150000019653D486ED99E19A83898342E050E0B5
:101510006CED71E0CE01019648D485E49AE19A839E
:10152000898342E050E06EED71E0CE0101963DD43A
:1015300085EB9AE19A83898342E050E060EE71E0A6
:10154000CE01019632D485E29BE19A83898342E001
:1015500050E062EE71E0CE01019627D485E99BE16F
:101560009A83898342E050E064EE71E0CE010196F7
:101570001CD484E09CE19A83898342E050E066EECB
:1015800071E0CE01019611D483E69CE19A838983B0
:1015900042E050E068EE71E0CE01019606D481E0B1
:1015A000809374028091620090916300A816B9063E
:1015B00008F46DC080914A0290914B028A159B05F8
:1015C00008F45FC0E4E6F0E021E030E0C190D190A3
:1015D000CA14DB0408F44EC0490181E0881A91085E
:1015E000880C991CF401EE59FF4FE080F180C9018D
:1015F000880F991F80509040D3D38C01C401805034
:101600009040CED3B801681B790B80E090E016D3F0
:101610002B013C0120E030E0A901A4D28823A1F1F4
:10162000B6016E197F0980E090E008D3A301920112
:101630009DD22B013C01B70180E090E0FFD26B010D
:101640007C014501A12CB12CC501B401F7D29B014D
:10165000AC01C701B60186D287FF0AC0A30192017F
:10166000C701B6011BD26B017C010F5F1F4FECCF8E
:10167000C8010FC02F5F3F4F253F310509F0A6CFAE
:1016800006C08CE49DE105C087E594E002C080E0DF
:1016900090E00F900F90DF91CF911F910F91FF90ED
:1016A000EF90DF90CF90BF90AF909F908F907F9002
:1016B0006F905F904F9008958AB188698AB986E8E3
:1016C00080BD10BC83E389B908955D9BFECF8CB9C2
:1016D00008955F9BFECF8CB108955F9B02C08CB1D3
:1016E000089580E30895CF93DF93EC0189918823D7
:1016F00011F0EBDFFBCFDF91CF910895B0C48CE404
:1017000092E0F1CFFB0120E030E0DC015D91CD0102
:101710004191541308C02F5F3F4F28303105A9F77E
:1017200081E090E0089580E090E00895CF92DF920C
:10173000EF92FF920F931F93CF93DF93CDB7DEB756
:1017400028970FB6F894DEBF0FBECDBF06E010E0BD
:101750003AE0C32ED12CE12CF12CA70196017BD1CC
:10176000605DE1E0F0E0EC0FFD1FE00FF11F608332
:10177000B901CA010150110980F71886CE010196FE
:1017800028960FB6F894DEBF0FBECDBFDF91CF9184
:101790001F910F91FF90EF90DF90CF9008958CDF15
:1017A000B89AC09A8A9A929A87B1806687B986B1A8
:1017B000876886B985B7806985BF86B1876486B931
:1017C0003499FECF84B180936E0280916E0282952F
:1017D00086958695837080936E0285B180936D02A5
:1017E00080916D0290E090936C0280936B028091E7
:1017F0006B0290916C02880F991F880F991F90932C
:101800006C0280936B0280916B0290916C0220912C
:101810006E02820F911D90936C0280936B028091F7
:101820006B0290916C02880F991F880F991F9093FB
:101830006A028093690285B78F7785BF7894C1E08B
:10184000F89485B7806985BF86B1876486B9349975
:10185000FECF85B78F7785BF78948FE39CE901979A
:10186000F1F700C0000084B180936E0280916E0297
:10187000829586958695837080936E0285B180935C
:101880006D0280916D0290E090936C0280936B02E8
:1018900080916B0290916C02880F991F880F991F9D
:1018A00090936C0280936B0280916B0290916C021A
:1018B00020916E02820F911D90936C0280936B02B7
:1018C000809165029091660220916B0230916C02CA
:1018D000820F931F01969093660280936502809118
:1018E00064028F5F80936402809164028430A0F16F
:1018F0001092640220916702309168028091650223
:101900009091660296958795820F931F9093680237
:1019100080936702109266021092650280916302C2
:101920008F5F80936302809163028430A8F01092ED
:10193000630280916702909168029695879501975E
:1019400090936A0280936902109268021092670273
:10195000109266021092650280917302833008F43F
:101960006FCF88B38C2788BBC093720289E592E061
:10197000BADE80917202813029F492E09A95F1F7F3
:1019800000C0F7CF8091710281110BC08091690274
:1019900090916A0264D3BC0180E090E0C7DEA3DED0
:1019A00005C08BE592E09FDE1092710210927302E7
:1019B00047CF1F920F920FB60F9211248F939F93D0
:1019C000EF93FF938CB19091720291112AC0909184
:1019D0007302911107C0E0916000F0916100908165
:1019E0008917B1F090917302913039F4E091600061
:1019F000F09161009181891759F0909173029230B2
:101A000069F4E0916000F09161009281891306C051
:101A1000809173028F5F809373020AC010927302E9
:101A200007C08C3619F081E0809371021092720227
:101A3000FF91EF919F918F910F900FBE0F901F908C
:101A400018951F920F920FB60F9211240F900FBE90
:101A50000F901F901895A1E21A2EAA1BBB1BFD0127
:101A60000DC0AA1FBB1FEE1FFF1FA217B307E4077D
:101A7000F50720F0A21BB30BE40BF50B661F771FD5
:101A8000881F991F1A9469F76095709580959095B5
:101A90009B01AC01BD01CF0108955058BB27AA2777
:101AA0000ED044C135D130F03AD120F031F49F3F0F
:101AB00011F41EF42AC10EF4E095E7FB20C1E92FD2
:101AC00046D180F3BA17620773078407950718F0A9
:101AD00071F49EF55EC10EF4E0950B2EBA2FA02D89
:101AE0000B01B90190010C01CA01A0011124FF27CB
:101AF000591B99F0593F50F4503E68F11A16F040C6
:101B0000A22F232F342F4427585FF3CF46953795C4
:101B10002795A795F0405395C9F77EF41F16BA0B89
:101B2000620B730B840BBAF09150A1F0FF0FBB1F37
:101B3000661F771F881FC2F70EC0BA0F621F731F80
:101B4000841F48F4879577956795B795F7959E3FDD
:101B500008F0B3CF9395880F08F09927EE0F97956B
:101B600087950895A8D008F481E008950CD0DEC0D0
:101B7000D6D040F0CDD030F021F45F3F19F0BFC097
:101B8000511108C1C2C0E3D098F39923C9F355237A
:101B9000B1F3951B550BBB27AA2762177307840760
:101BA00038F09F5F5F4F220F331F441FAA1FA9F316
:101BB00033D00E2E3AF0E0E830D091505040E69508
:101BC000001CCAF729D0FE2F27D0660F771F881F69
:101BD000BB1F261737074807AB07B0E809F0BB0B58
:101BE000802DBF01FF2793585F4F2AF09E3F51057C
:101BF00068F085C0CFC05F3FECF3983EDCF386957C
:101C000077956795B795F7959F5FC9F7880F911DF1
:101C10009695879597F90895E1E0660F771F881FDD
:101C2000BB1F621773078407BA0720F0621B730B90
:101C3000840BBA0BEE1F88F7E0950895E89409C06D
:101C400097FB3EF490958095709561957F4F8F4FEF
:101C50009F4F9923A9F0F92F96E9BB279395F69505
:101C6000879577956795B795F111F8CFFAF4BB0F83
:101C700011F460FF1BC06F5F7F4F8F4F9F4F16C0E7
:101C8000882311F096E911C0772321F09EE8872F71
:101C9000762F05C0662371F096E8862F70E060E02D
:101CA0002AF09A95660F771F881FDAF7880F9695A6
:101CB000879597F90895990F0008550FAA0BE0E84A
:101CC000FEEF16161706E807F907C0F012161306FE
:101CD000E407F50798F0621B730B840B950B39F43E
:101CE0000A2661F0232B242B252B21F408950A26A4
:101CF00009F4A140A6958FEF811D811D089597F9E4
:101D00009F6780E870E060E008959FEF80EC0895A1
:101D100000240A94161617061806090608950024CA
:101D20000A9412161306140605060895092E039444
:101D3000000C11F4882352F0BB0F40F4BF2B11F4B8
:101D400060FF04C06F5F7F4F8F4F9F4F089557FD17
:101D50009058440F551F59F05F3F71F04795880F19
:101D600097FB991F61F09F3F79F0879508951216B0
:101D700013061406551FF2CF4695F1DF08C016165C
:101D800017061806991FF1CF86957105610508940D
:101D90000895E894BB2766277727CB0197F9089524
:101DA000A8E1B0E042E050E018C0DC01CB0102C085
:101DB0002D9105D041505040D8F70895262FE19934
:101DC000FECF9FBB8EBB2DBB0FB6F894E29AE19A73
:101DD0000FBE01960895DC01CB01FC01E199FECF15
:101DE00006C0FFBBEEBBE09A31960DB20D9241509A
:0A1DF0005040B8F70895F894FFCFB3
:101DFA005D021301AA013E02AE0211036E03CA0379
:101E0A001F045B049604CF041005510576059B0553
:101E1A00C905F4051B063F0661068106A206C1062E
:101E2A00DF06FB06190735074C0763077907920790
:101E3A00AF07C507DB07EE0702081F082E083B0895
:101E4A004B085A086908780887089608A508B4084C
:101E5A00C308D308E408F40801090D09190925097A
:101E6A002D0933093A09400946094D0953095A0906
:101E7A00600966096D0973097A09800987098D095C
:101E8A0093099A09A009A709AD09B309BA09C009B2
:101E9A00C709CD09D309DA09E009E709ED09F30908
:101EAA00F909FF09050A0B0A110A170A1D0A230A6A
:101EBA00290A2F0A350A3B0A410A470A4D0A530AD8
:101ECA00590A5F0A650A6B0A710A770A7D0A830A48
:101EDA00890A8F0A950A9B0AA10AA70AAD0AB30AB8
:101EEA00B90ABF0AC50ACB0AD10AD70ADD0AE30A28
:101EFA00E90AEF0AF50AFB0A010B070B0D0B130B94
:101F0A00190B1F0B250B2B0B310B370B3D0B430BFF
:101F1A00490B4F0B550B5B0B610B670B6D0B730B6F
:101F2A00790B7F0B850B8B0B910B970B9D0BA30BDF
:101F3A00A90BAF0BB50BBB0BC10BC70BCD0BD30B4F
:101F4A00D90BDF0BE50BEB0BF10BF70BFD0B030CBE
:101F5A00090C0F0C150C1B0C210C270C2D0C330C27
:101F6A00390C3F0C450C4B0C510C570C5D0C630C97
:101F7A00690C6F0C750C7B0C810C870C8D0C930C07
:101F8A00990C9F0CA50CAB0CB10CB70CBD0CC30C77
:101F9A00C90CCF0CD50CDB0CE10CE70CED0CF30CE7
:101FAA00F90CFF0C050D0B0D110D170D1D0D230D51
:101FBA00290D2F0D350D3B0D410D470D4D0D530DBF
:101FCA00590D5F0D650D6B0D710D770D7D0D830D2F
:101FDA00890D8F0D950D9B0DA10DA70D5769616494
:101FEA0020746573746F776100670062004330354F
:021FFA000000E5
:00000001FF
